:020000040000FA
:040000009FEF0FF06F
:101F3E000001C0EF0FF0720ED36E000E806E000E19
:101F4E00926E000E816E93680F0EC16E000ED06EF3
:101F5E00010E9D6E000EA06EE00EF26E800EF16E02
:101F6E00000EF06E000E9E6E000EA16E000EB46E90
:101F7E001200A2EC0FF081A8C7EF0FF0C9EF0FF01F
:101F8E00E3EF0FF089800B0E026E260E016E5E0ED1
:101F9E00E82EFED7012EFCD7022EFAD78990060E18
:101FAE00026E130E016EAE0EE82EFED7012EFCD77A
:101FBE00022EFAD7C2EF0FF08982150E026E4B0E6B
:101FCE00016EBE0EE82EFED7012EFCD7022EFAD7DA
:101FDE0000D089920B0E026E260E016E5E0EE82E5A
:101FEE00FED7012EFCD7022EFAD7C2EF0FF000EF6C
:021FFE0000F0F1
:020000040020DA
:08000000FFFFFFFFFFFFFFFF00
:020000040030CA
:0E000000FF08151E0E0181FF03C003E0034040
:00000001FF
